{
	"_format": "hh-sol-artifact-1",
	"contractName": "RealEstateToken",
	"sourceName": "contracts/real_estate_token.sol",
	"abi": [
		{
			"inputs": [
				{
					"internalType": "uint256",
					"name": "initialSupply",
					"type": "uint256"
				},
				{
					"internalType": "uint256",
					"name": "_propertyValue",
					"type": "uint256"
				}
			],
			"stateMutability": "nonpayable",
			"type": "constructor"
		},
		{
			"inputs": [
				{
					"internalType": "address",
					"name": "spender",
					"type": "address"
				},
				{
					"internalType": "uint256",
					"name": "allowance",
					"type": "uint256"
				},
				{
					"internalType": "uint256",
					"name": "needed",
					"type": "uint256"
				}
			],
			"name": "ERC20InsufficientAllowance",
			"type": "error"
		},
		{
			"inputs": [
				{
					"internalType": "address",
					"name": "sender",
					"type": "address"
				},
				{
					"internalType": "uint256",
					"name": "balance",
					"type": "uint256"
				},
				{
					"internalType": "uint256",
					"name": "needed",
					"type": "uint256"
				}
			],
			"name": "ERC20InsufficientBalance",
			"type": "error"
		},
		{
			"inputs": [
				{
					"internalType": "address",
					"name": "approver",
					"type": "address"
				}
			],
			"name": "ERC20InvalidApprover",
			"type": "error"
		},
		{
			"inputs": [
				{
					"internalType": "address",
					"name": "receiver",
					"type": "address"
				}
			],
			"name": "ERC20InvalidReceiver",
			"type": "error"
		},
		{
			"inputs": [
				{
					"internalType": "address",
					"name": "sender",
					"type": "address"
				}
			],
			"name": "ERC20InvalidSender",
			"type": "error"
		},
		{
			"inputs": [
				{
					"internalType": "address",
					"name": "spender",
					"type": "address"
				}
			],
			"name": "ERC20InvalidSpender",
			"type": "error"
		},
		{
			"inputs": [],
			"name": "EnforcedPause",
			"type": "error"
		},
		{
			"inputs": [],
			"name": "ExpectedPause",
			"type": "error"
		},
		{
			"inputs": [
				{
					"internalType": "address",
					"name": "owner",
					"type": "address"
				}
			],
			"name": "OwnableInvalidOwner",
			"type": "error"
		},
		{
			"inputs": [
				{
					"internalType": "address",
					"name": "account",
					"type": "address"
				}
			],
			"name": "OwnableUnauthorizedAccount",
			"type": "error"
		},
		{
			"anonymous": false,
			"inputs": [
				{
					"indexed": true,
					"internalType": "address",
					"name": "owner",
					"type": "address"
				},
				{
					"indexed": true,
					"internalType": "address",
					"name": "spender",
					"type": "address"
				},
				{
					"indexed": false,
					"internalType": "uint256",
					"name": "value",
					"type": "uint256"
				}
			],
			"name": "Approval",
			"type": "event"
		},
		{
			"anonymous": false,
			"inputs": [
				{
					"indexed": true,
					"internalType": "address",
					"name": "previousOwner",
					"type": "address"
				},
				{
					"indexed": true,
					"internalType": "address",
					"name": "newOwner",
					"type": "address"
				}
			],
			"name": "OwnershipTransferred",
			"type": "event"
		},
		{
			"anonymous": false,
			"inputs": [
				{
					"indexed": false,
					"internalType": "address",
					"name": "account",
					"type": "address"
				}
			],
			"name": "Paused",
			"type": "event"
		},
		{
			"anonymous": false,
			"inputs": [
				{
					"indexed": true,
					"internalType": "address",
					"name": "from",
					"type": "address"
				},
				{
					"indexed": true,
					"internalType": "address",
					"name": "to",
					"type": "address"
				},
				{
					"indexed": false,
					"internalType": "uint256",
					"name": "value",
					"type": "uint256"
				}
			],
			"name": "Transfer",
			"type": "event"
		},
		{
			"anonymous": false,
			"inputs": [
				{
					"indexed": false,
					"internalType": "address",
					"name": "account",
					"type": "address"
				}
			],
			"name": "Unpaused",
			"type": "event"
		},
		{
			"inputs": [
				{
					"internalType": "address",
					"name": "owner",
					"type": "address"
				},
				{
					"internalType": "address",
					"name": "spender",
					"type": "address"
				}
			],
			"name": "allowance",
			"outputs": [
				{
					"internalType": "uint256",
					"name": "",
					"type": "uint256"
				}
			],
			"stateMutability": "view",
			"type": "function"
		},
		{
			"inputs": [
				{
					"internalType": "address",
					"name": "spender",
					"type": "address"
				},
				{
					"internalType": "uint256",
					"name": "value",
					"type": "uint256"
				}
			],
			"name": "approve",
			"outputs": [
				{
					"internalType": "bool",
					"name": "",
					"type": "bool"
				}
			],
			"stateMutability": "nonpayable",
			"type": "function"
		},
		{
			"inputs": [
				{
					"internalType": "address",
					"name": "account",
					"type": "address"
				}
			],
			"name": "balanceOf",
			"outputs": [
				{
					"internalType": "uint256",
					"name": "",
					"type": "uint256"
				}
			],
			"stateMutability": "view",
			"type": "function"
		},
		{
			"inputs": [
				{
					"internalType": "uint256",
					"name": "value",
					"type": "uint256"
				}
			],
			"name": "burn",
			"outputs": [],
			"stateMutability": "nonpayable",
			"type": "function"
		},
		{
			"inputs": [
				{
					"internalType": "address",
					"name": "account",
					"type": "address"
				},
				{
					"internalType": "uint256",
					"name": "value",
					"type": "uint256"
				}
			],
			"name": "burnFrom",
			"outputs": [],
			"stateMutability": "nonpayable",
			"type": "function"
		},
		{
			"inputs": [],
			"name": "decimals",
			"outputs": [
				{
					"internalType": "uint8",
					"name": "",
					"type": "uint8"
				}
			],
			"stateMutability": "view",
			"type": "function"
		},
		{
			"inputs": [],
			"name": "distributeDividends",
			"outputs": [],
			"stateMutability": "payable",
			"type": "function"
		},
		{
			"inputs": [],
			"name": "name",
			"outputs": [
				{
					"internalType": "string",
					"name": "",
					"type": "string"
				}
			],
			"stateMutability": "view",
			"type": "function"
		},
		{
			"inputs": [],
			"name": "owner",
			"outputs": [
				{
					"internalType": "address",
					"name": "",
					"type": "address"
				}
			],
			"stateMutability": "view",
			"type": "function"
		},
		{
			"inputs": [],
			"name": "pause",
			"outputs": [],
			"stateMutability": "nonpayable",
			"type": "function"
		},
		{
			"inputs": [],
			"name": "paused",
			"outputs": [
				{
					"internalType": "bool",
					"name": "",
					"type": "bool"
				}
			],
			"stateMutability": "view",
			"type": "function"
		},
		{
			"inputs": [],
			"name": "propertyValue",
			"outputs": [
				{
					"internalType": "uint256",
					"name": "",
					"type": "uint256"
				}
			],
			"stateMutability": "view",
			"type": "function"
		},
		{
			"inputs": [],
			"name": "renounceOwnership",
			"outputs": [],
			"stateMutability": "nonpayable",
			"type": "function"
		},
		{
			"inputs": [],
			"name": "symbol",
			"outputs": [
				{
					"internalType": "string",
					"name": "",
					"type": "string"
				}
			],
			"stateMutability": "view",
			"type": "function"
		},
		{
			"inputs": [],
			"name": "totalSupply",
			"outputs": [
				{
					"internalType": "uint256",
					"name": "",
					"type": "uint256"
				}
			],
			"stateMutability": "view",
			"type": "function"
		},
		{
			"inputs": [
				{
					"internalType": "address",
					"name": "to",
					"type": "address"
				},
				{
					"internalType": "uint256",
					"name": "amount",
					"type": "uint256"
				}
			],
			"name": "transfer",
			"outputs": [
				{
					"internalType": "bool",
					"name": "",
					"type": "bool"
				}
			],
			"stateMutability": "nonpayable",
			"type": "function"
		},
		{
			"inputs": [
				{
					"internalType": "address",
					"name": "from",
					"type": "address"
				},
				{
					"internalType": "address",
					"name": "to",
					"type": "address"
				},
				{
					"internalType": "uint256",
					"name": "amount",
					"type": "uint256"
				}
			],
			"name": "transferFrom",
			"outputs": [
				{
					"internalType": "bool",
					"name": "",
					"type": "bool"
				}
			],
			"stateMutability": "nonpayable",
			"type": "function"
		},
		{
			"inputs": [
				{
					"internalType": "address",
					"name": "newOwner",
					"type": "address"
				}
			],
			"name": "transferOwnership",
			"outputs": [],
			"stateMutability": "nonpayable",
			"type": "function"
		},
		{
			"inputs": [],
			"name": "unpause",
			"outputs": [],
			"stateMutability": "nonpayable",
			"type": "function"
		},
		{
			"inputs": [],
			"name": "withdrawDividends",
			"outputs": [],
			"stateMutability": "nonpayable",
			"type": "function"
		}
	],
	"bytecode": "0x60806040523480156200001157600080fd5b50604051620025e8380380620025e8833981810160405281019062000037919062000550565b336040518060400160405280600f81526020017f5265616c457374617465546f6b656e00000000000000000000000000000000008152506040518060400160405280600381526020017f52455400000000000000000000000000000000000000000000000000000000008152508160039081620000b5919062000807565b508060049081620000c7919062000807565b505050600073ffffffffffffffffffffffffffffffffffffffff168173ffffffffffffffffffffffffffffffffffffffff16036200013f5760006040517f1e4fbdf700000000000000000000000000000000000000000000000000000000815260040162000136919062000933565b60405180910390fd5b62000150816200018d60201b60201c565b506000600560146101000a81548160ff0219169083151502179055506200017e33836200025360201b60201c565b80600781905550505062000a25565b6000600560009054906101000a900473ffffffffffffffffffffffffffffffffffffffff16905081600560006101000a81548173ffffffffffffffffffffffffffffffffffffffff021916908373ffffffffffffffffffffffffffffffffffffffff1602179055508173ffffffffffffffffffffffffffffffffffffffff168173ffffffffffffffffffffffffffffffffffffffff167f8be0079c531659141344cd1fd0a4f28419497f9722a3daafe3b4186f6b6457e060405160405180910390a35050565b600073ffffffffffffffffffffffffffffffffffffffff168273ffffffffffffffffffffffffffffffffffffffff1603620002c85760006040517fec442f05000000000000000000000000000000000000000000000000000000008152600401620002bf919062000933565b60405180910390fd5b620002dc60008383620002e060201b60201c565b5050565b600073ffffffffffffffffffffffffffffffffffffffff168373ffffffffffffffffffffffffffffffffffffffff1603620003365780600260008282546200032991906200097f565b925050819055506200040c565b60008060008573ffffffffffffffffffffffffffffffffffffffff1673ffffffffffffffffffffffffffffffffffffffff16815260200190815260200160002054905081811015620003c5578381836040517fe450d38c000000000000000000000000000000000000000000000000000000008152600401620003bc93929190620009cb565b60405180910390fd5b8181036000808673ffffffffffffffffffffffffffffffffffffffff1673ffffffffffffffffffffffffffffffffffffffff16815260200190815260200160002081905550505b600073ffffffffffffffffffffffffffffffffffffffff168273ffffffffffffffffffffffffffffffffffffffff1603620004575780600260008282540392505081905550620004a4565b806000808473ffffffffffffffffffffffffffffffffffffffff1673ffffffffffffffffffffffffffffffffffffffff168152602001908152602001600020600082825401925050819055505b8173ffffffffffffffffffffffffffffffffffffffff168373ffffffffffffffffffffffffffffffffffffffff167fddf252ad1be2c89b69c2b068fc378daa952ba7f163c4a11628f55a4df523b3ef8360405162000503919062000a08565b60405180910390a3505050565b600080fd5b6000819050919050565b6200052a8162000515565b81146200053657600080fd5b50565b6000815190506200054a816200051f565b92915050565b600080604083850312156200056a576200056962000510565b5b60006200057a8582860162000539565b92505060206200058d8582860162000539565b9150509250929050565b600081519050919050565b7f4e487b7100000000000000000000000000000000000000000000000000000000600052604160045260246000fd5b7f4e487b7100000000000000000000000000000000000000000000000000000000600052602260045260246000fd5b600060028204905060018216806200061957607f821691505b6020821081036200062f576200062e620005d1565b5b50919050565b60008190508160005260206000209050919050565b60006020601f8301049050919050565b600082821b905092915050565b600060088302620006997fffffffffffffffffffffffffffffffffffffffffffffffffffffffffffffffff826200065a565b620006a586836200065a565b95508019841693508086168417925050509392505050565b6000819050919050565b6000620006e8620006e2620006dc8462000515565b620006bd565b62000515565b9050919050565b6000819050919050565b6200070483620006c7565b6200071c6200071382620006ef565b84845462000667565b825550505050565b600090565b6200073362000724565b62000740818484620006f9565b505050565b5b8181101562000768576200075c60008262000729565b60018101905062000746565b5050565b601f821115620007b757620007818162000635565b6200078c846200064a565b810160208510156200079c578190505b620007b4620007ab856200064a565b83018262000745565b50505b505050565b600082821c905092915050565b6000620007dc60001984600802620007bc565b1980831691505092915050565b6000620007f78383620007c9565b9150826002028217905092915050565b620008128262000597565b67ffffffffffffffff8111156200082e576200082d620005a2565b5b6200083a825462000600565b620008478282856200076c565b600060209050601f8311600181146200087f57600084156200086a578287015190505b620008768582620007e9565b865550620008e6565b601f1984166200088f8662000635565b60005b82811015620008b95784890151825560018201915060208501945060208101905062000892565b86831015620008d95784890151620008d5601f891682620007c9565b8355505b6001600288020188555050505b505050505050565b600073ffffffffffffffffffffffffffffffffffffffff82169050919050565b60006200091b82620008ee565b9050919050565b6200092d816200090e565b82525050565b60006020820190506200094a600083018462000922565b92915050565b7f4e487b7100000000000000000000000000000000000000000000000000000000600052601160045260246000fd5b60006200098c8262000515565b9150620009998362000515565b9250828201905080821115620009b457620009b362000950565b5b92915050565b620009c58162000515565b82525050565b6000606082019050620009e2600083018662000922565b620009f16020830185620009ba565b62000a006040830184620009ba565b949350505050565b600060208201905062000a1f6000830184620009ba565b92915050565b611bb38062000a356000396000f3fe60806040526004361061011f5760003560e01c80635c975abb116100a05780638da5cb5b116100645780638da5cb5b1461036a57806395d89b4114610395578063a9059cbb146103c0578063dd62ed3e146103fd578063f2fde38b1461043a5761011f565b80635c975abb146102ab57806370a08231146102d6578063715018a61461031357806379cc67901461032a5780638456cb59146103535761011f565b806323b872dd116100e757806323b872dd146101ec5780632e92abdd14610229578063313ce567146102405780633f4ba83a1461026b57806342966c68146102825761011f565b806303c833021461012457806306fdde031461012e578063095ea7b3146101595780631015c6821461019657806318160ddd146101c1575b600080fd5b61012c610463565b005b34801561013a57600080fd5b5061014361059a565b604051610150919061156e565b60405180910390f35b34801561016557600080fd5b50610180600480360381019061017b9190611629565b61062c565b60405161018d9190611684565b60405180910390f35b3480156101a257600080fd5b506101ab61064f565b6040516101b891906116ae565b60405180910390f35b3480156101cd57600080fd5b506101d6610655565b6040516101e391906116ae565b60405180910390f35b3480156101f857600080fd5b50610213600480360381019061020e91906116c9565b61065f565b6040516102209190611684565b60405180910390f35b34801561023557600080fd5b5061023e61067d565b005b34801561024c57600080fd5b50610255610793565b6040516102629190611738565b60405180910390f35b34801561027757600080fd5b5061028061079c565b005b34801561028e57600080fd5b506102a960048036038101906102a49190611753565b6107ae565b005b3480156102b757600080fd5b506102c06107c2565b6040516102cd9190611684565b60405180910390f35b3480156102e257600080fd5b506102fd60048036038101906102f89190611780565b6107d9565b60405161030a91906116ae565b60405180910390f35b34801561031f57600080fd5b50610328610821565b005b34801561033657600080fd5b50610351600480360381019061034c9190611629565b610835565b005b34801561035f57600080fd5b50610368610855565b005b34801561037657600080fd5b5061037f610867565b60405161038c91906117bc565b60405180910390f35b3480156103a157600080fd5b506103aa610891565b6040516103b7919061156e565b60405180910390f35b3480156103cc57600080fd5b506103e760048036038101906103e29190611629565b610923565b6040516103f49190611684565b60405180910390f35b34801561040957600080fd5b50610424600480360381019061041f91906117d7565b61093f565b60405161043191906116ae565b60405180910390f35b34801561044657600080fd5b50610461600480360381019061045c9190611780565b6109c6565b005b61046b610a4c565b600034116104ae576040517f08c379a00000000000000000000000000000000000000000000000000000000081526004016104a590611889565b60405180910390fd5b60006104b8610655565b9050600034905060006104c9610ad3565b905060005b81518110156105945760008282815181106104ec576104eb6118a9565b5b602002602001015190506000610501826107d9565b9050600081111561057f57600086828761051b9190611907565b6105259190611978565b905080600660008573ffffffffffffffffffffffffffffffffffffffff1673ffffffffffffffffffffffffffffffffffffffff168152602001908152602001600020600082825461057691906119a9565b92505081905550505b5050808061058c906119dd565b9150506104ce565b50505050565b6060600380546105a990611a54565b80601f01602080910402602001604051908101604052809291908181526020018280546105d590611a54565b80156106225780601f106105f757610100808354040283529160200191610622565b820191906000526020600020905b81548152906001019060200180831161060557829003601f168201915b5050505050905090565b600080610637610bd8565b9050610644818585610be0565b600191505092915050565b60075481565b6000600254905090565b6000610669610bf2565b610674848484610c33565b90509392505050565b6000600660003373ffffffffffffffffffffffffffffffffffffffff1673ffffffffffffffffffffffffffffffffffffffff16815260200190815260200160002054905060008111610704576040517f08c379a00000000000000000000000000000000000000000000000000000000081526004016106fb90611af7565b60405180910390fd5b3373ffffffffffffffffffffffffffffffffffffffff166108fc829081150290604051600060405180830381858888f1935050505015801561074a573d6000803e3d6000fd5b506000600660003373ffffffffffffffffffffffffffffffffffffffff1673ffffffffffffffffffffffffffffffffffffffff1681526020019081526020016000208190555050565b60006012905090565b6107a4610a4c565b6107ac610c62565b565b6107bf6107b9610bd8565b82610cc5565b50565b6000600560149054906101000a900460ff16905090565b60008060008373ffffffffffffffffffffffffffffffffffffffff1673ffffffffffffffffffffffffffffffffffffffff168152602001908152602001600020549050919050565b610829610a4c565b6108336000610d47565b565b61084782610841610bd8565b83610e0d565b6108518282610cc5565b5050565b61085d610a4c565b610865610ea1565b565b6000600560009054906101000a900473ffffffffffffffffffffffffffffffffffffffff16905090565b6060600480546108a090611a54565b80601f01602080910402602001604051908101604052809291908181526020018280546108cc90611a54565b80156109195780601f106108ee57610100808354040283529160200191610919565b820191906000526020600020905b8154815290600101906020018083116108fc57829003601f168201915b5050505050905090565b600061092d610bf2565b6109378383610f04565b905092915050565b6000600160008473ffffffffffffffffffffffffffffffffffffffff1673ffffffffffffffffffffffffffffffffffffffff16815260200190815260200160002060008373ffffffffffffffffffffffffffffffffffffffff1673ffffffffffffffffffffffffffffffffffffffff16815260200190815260200160002054905092915050565b6109ce610a4c565b600073ffffffffffffffffffffffffffffffffffffffff168173ffffffffffffffffffffffffffffffffffffffff1603610a405760006040517f1e4fbdf7000000000000000000000000000000000000000000000000000000008152600401610a3791906117bc565b60405180910390fd5b610a4981610d47565b50565b610a54610bd8565b73ffffffffffffffffffffffffffffffffffffffff16610a72610867565b73ffffffffffffffffffffffffffffffffffffffff1614610ad157610a95610bd8565b6040517f118cdaa7000000000000000000000000000000000000000000000000000000008152600401610ac891906117bc565b60405180910390fd5b565b60606000808167ffffffffffffffff811115610af257610af1611b17565b5b604051908082528060200260200182016040528015610b205781602001602082028036833780820191505090505b50905060005b610b2e610655565b811015610bcf5760008190506000610b45826107d9565b118015610b595750610b578382610f27565b155b15610bbb5780838581518110610b7257610b716118a9565b5b602002602001019073ffffffffffffffffffffffffffffffffffffffff16908173ffffffffffffffffffffffffffffffffffffffff16815250508380610bb7906119dd565b9450505b508080610bc7906119dd565b915050610b26565b50809250505090565b600033905090565b610bed8383836001610fae565b505050565b610bfa6107c2565b15610c31576040517fd93c066500000000000000000000000000000000000000000000000000000000815260040160405180910390fd5b565b600080610c3e610bd8565b9050610c4b858285610e0d565b610c56858585611185565b60019150509392505050565b610c6a611279565b6000600560146101000a81548160ff0219169083151502179055507f5db9ee0a495bf2e6ff9c91a7834c1ba4fdd244a5e8aa4e537bd38aeae4b073aa610cae610bd8565b604051610cbb91906117bc565b60405180910390a1565b600073ffffffffffffffffffffffffffffffffffffffff168273ffffffffffffffffffffffffffffffffffffffff1603610d375760006040517f96c6fd1e000000000000000000000000000000000000000000000000000000008152600401610d2e91906117bc565b60405180910390fd5b610d43826000836112b9565b5050565b6000600560009054906101000a900473ffffffffffffffffffffffffffffffffffffffff16905081600560006101000a81548173ffffffffffffffffffffffffffffffffffffffff021916908373ffffffffffffffffffffffffffffffffffffffff1602179055508173ffffffffffffffffffffffffffffffffffffffff168173ffffffffffffffffffffffffffffffffffffffff167f8be0079c531659141344cd1fd0a4f28419497f9722a3daafe3b4186f6b6457e060405160405180910390a35050565b6000610e19848461093f565b90507fffffffffffffffffffffffffffffffffffffffffffffffffffffffffffffffff8114610e9b5781811015610e8b578281836040517ffb8f41b2000000000000000000000000000000000000000000000000000000008152600401610e8293929190611b46565b60405180910390fd5b610e9a84848484036000610fae565b5b50505050565b610ea9610bf2565b6001600560146101000a81548160ff0219169083151502179055507f62e78cea01bee320cd4e420270b5ea74000d11b0c9f74754ebdbfc544b05a258610eed610bd8565b604051610efa91906117bc565b60405180910390a1565b600080610f0f610bd8565b9050610f1c818585611185565b600191505092915050565b600080600090505b8351811015610fa2578273ffffffffffffffffffffffffffffffffffffffff16848281518110610f6257610f616118a9565b5b602002602001015173ffffffffffffffffffffffffffffffffffffffff1603610f8f576001915050610fa8565b8080610f9a906119dd565b915050610f2f565b50600090505b92915050565b600073ffffffffffffffffffffffffffffffffffffffff168473ffffffffffffffffffffffffffffffffffffffff16036110205760006040517fe602df0500000000000000000000000000000000000000000000000000000000815260040161101791906117bc565b60405180910390fd5b600073ffffffffffffffffffffffffffffffffffffffff168373ffffffffffffffffffffffffffffffffffffffff16036110925760006040517f94280d6200000000000000000000000000000000000000000000000000000000815260040161108991906117bc565b60405180910390fd5b81600160008673ffffffffffffffffffffffffffffffffffffffff1673ffffffffffffffffffffffffffffffffffffffff16815260200190815260200160002060008573ffffffffffffffffffffffffffffffffffffffff1673ffffffffffffffffffffffffffffffffffffffff16815260200190815260200160002081905550801561117f578273ffffffffffffffffffffffffffffffffffffffff168473ffffffffffffffffffffffffffffffffffffffff167f8c5be1e5ebec7d5bd14f71427d1e84f3dd0314c0f7b2291e5b200ac8c7c3b9258460405161117691906116ae565b60405180910390a35b50505050565b600073ffffffffffffffffffffffffffffffffffffffff168373ffffffffffffffffffffffffffffffffffffffff16036111f75760006040517f96c6fd1e0000000000000000000000000000000000000000000000000000000081526004016111ee91906117bc565b60405180910390fd5b600073ffffffffffffffffffffffffffffffffffffffff168273ffffffffffffffffffffffffffffffffffffffff16036112695760006040517fec442f0500000000000000000000000000000000000000000000000000000000815260040161126091906117bc565b60405180910390fd5b6112748383836112b9565b505050565b6112816107c2565b6112b7576040517f8dfc202b00000000000000000000000000000000000000000000000000000000815260040160405180910390fd5b565b600073ffffffffffffffffffffffffffffffffffffffff168373ffffffffffffffffffffffffffffffffffffffff160361130b5780600260008282546112ff91906119a9565b925050819055506113de565b60008060008573ffffffffffffffffffffffffffffffffffffffff1673ffffffffffffffffffffffffffffffffffffffff16815260200190815260200160002054905081811015611397578381836040517fe450d38c00000000000000000000000000000000000000000000000000000000815260040161138e93929190611b46565b60405180910390fd5b8181036000808673ffffffffffffffffffffffffffffffffffffffff1673ffffffffffffffffffffffffffffffffffffffff16815260200190815260200160002081905550505b600073ffffffffffffffffffffffffffffffffffffffff168273ffffffffffffffffffffffffffffffffffffffff16036114275780600260008282540392505081905550611474565b806000808473ffffffffffffffffffffffffffffffffffffffff1673ffffffffffffffffffffffffffffffffffffffff168152602001908152602001600020600082825401925050819055505b8173ffffffffffffffffffffffffffffffffffffffff168373ffffffffffffffffffffffffffffffffffffffff167fddf252ad1be2c89b69c2b068fc378daa952ba7f163c4a11628f55a4df523b3ef836040516114d191906116ae565b60405180910390a3505050565b600081519050919050565b600082825260208201905092915050565b60005b838110156115185780820151818401526020810190506114fd565b60008484015250505050565b6000601f19601f8301169050919050565b6000611540826114de565b61154a81856114e9565b935061155a8185602086016114fa565b61156381611524565b840191505092915050565b600060208201905081810360008301526115888184611535565b905092915050565b600080fd5b600073ffffffffffffffffffffffffffffffffffffffff82169050919050565b60006115c082611595565b9050919050565b6115d0816115b5565b81146115db57600080fd5b50565b6000813590506115ed816115c7565b92915050565b6000819050919050565b611606816115f3565b811461161157600080fd5b50565b600081359050611623816115fd565b92915050565b600080604083850312156116405761163f611590565b5b600061164e858286016115de565b925050602061165f85828601611614565b9150509250929050565b60008115159050919050565b61167e81611669565b82525050565b60006020820190506116996000830184611675565b92915050565b6116a8816115f3565b82525050565b60006020820190506116c3600083018461169f565b92915050565b6000806000606084860312156116e2576116e1611590565b5b60006116f0868287016115de565b9350506020611701868287016115de565b925050604061171286828701611614565b9150509250925092565b600060ff82169050919050565b6117328161171c565b82525050565b600060208201905061174d6000830184611729565b92915050565b60006020828403121561176957611768611590565b5b600061177784828501611614565b91505092915050565b60006020828403121561179657611795611590565b5b60006117a4848285016115de565b91505092915050565b6117b6816115b5565b82525050565b60006020820190506117d160008301846117ad565b92915050565b600080604083850312156117ee576117ed611590565b5b60006117fc858286016115de565b925050602061180d858286016115de565b9150509250929050565b7f4e6f2065746865722073656e7420666f72206469766964656e6473206469737460008201527f7269627574696f6e2e0000000000000000000000000000000000000000000000602082015250565b60006118736029836114e9565b915061187e82611817565b604082019050919050565b600060208201905081810360008301526118a281611866565b9050919050565b7f4e487b7100000000000000000000000000000000000000000000000000000000600052603260045260246000fd5b7f4e487b7100000000000000000000000000000000000000000000000000000000600052601160045260246000fd5b6000611912826115f3565b915061191d836115f3565b925082820261192b816115f3565b91508282048414831517611942576119416118d8565b5b5092915050565b7f4e487b7100000000000000000000000000000000000000000000000000000000600052601260045260246000fd5b6000611983826115f3565b915061198e836115f3565b92508261199e5761199d611949565b5b828204905092915050565b60006119b4826115f3565b91506119bf836115f3565b92508282019050808211156119d7576119d66118d8565b5b92915050565b60006119e8826115f3565b91507fffffffffffffffffffffffffffffffffffffffffffffffffffffffffffffffff8203611a1a57611a196118d8565b5b600182019050919050565b7f4e487b7100000000000000000000000000000000000000000000000000000000600052602260045260246000fd5b60006002820490506001821680611a6c57607f821691505b602082108103611a7f57611a7e611a25565b5b50919050565b7f4e6f206469766964656e647320617661696c61626c6520666f7220776974686460008201527f726177616c2e0000000000000000000000000000000000000000000000000000602082015250565b6000611ae16026836114e9565b9150611aec82611a85565b604082019050919050565b60006020820190508181036000830152611b1081611ad4565b9050919050565b7f4e487b7100000000000000000000000000000000000000000000000000000000600052604160045260246000fd5b6000606082019050611b5b60008301866117ad565b611b68602083018561169f565b611b75604083018461169f565b94935050505056fea2646970667358221220c7c4f9b15d103eef008e38373cf92a1ea55eb5f435b196c694655271def619c164736f6c63430008140033",
	"linkReferences": {},
	"deployedLinkReferences": {}
}