{
  "_format": "hh-sol-artifact-1",
  "contractName": "CBDC_KYC",
  "sourceName": "contracts/kyc_cbdc.sol",
  "abi": [
    {
      "inputs": [],
      "stateMutability": "nonpayable",
      "type": "constructor"
    },
    {
      "anonymous": false,
      "inputs": [
        {
          "indexed": false,
          "internalType": "uint256",
          "name": "amount",
          "type": "uint256"
        }
      ],
      "name": "CheckBalance",
      "type": "event"
    },
    {
      "anonymous": false,
      "inputs": [
        {
          "indexed": false,
          "internalType": "uint256",
          "name": "requestId",
          "type": "uint256"
        },
        {
          "indexed": true,
          "internalType": "address",
          "name": "applicant",
          "type": "address"
        }
      ],
      "name": "KYCApproved",
      "type": "event"
    },
    {
      "anonymous": false,
      "inputs": [
        {
          "indexed": false,
          "internalType": "uint256",
          "name": "requestId",
          "type": "uint256"
        },
        {
          "indexed": true,
          "internalType": "address",
          "name": "applicant",
          "type": "address"
        }
      ],
      "name": "KYCRejected",
      "type": "event"
    },
    {
      "anonymous": false,
      "inputs": [
        {
          "indexed": false,
          "internalType": "uint256",
          "name": "requestId",
          "type": "uint256"
        },
        {
          "indexed": true,
          "internalType": "address",
          "name": "applicant",
          "type": "address"
        }
      ],
      "name": "KYCSubmitted",
      "type": "event"
    },
    {
      "inputs": [
        {
          "internalType": "uint256",
          "name": "_requestId",
          "type": "uint256"
        }
      ],
      "name": "approveKYCRequest",
      "outputs": [],
      "stateMutability": "nonpayable",
      "type": "function"
    },
    {
      "inputs": [
        {
          "internalType": "address",
          "name": "user_account",
          "type": "address"
        }
      ],
      "name": "getBalance",
      "outputs": [
        {
          "internalType": "uint256",
          "name": "",
          "type": "uint256"
        }
      ],
      "stateMutability": "nonpayable",
      "type": "function"
    },
    {
      "inputs": [
        {
          "internalType": "uint256",
          "name": "",
          "type": "uint256"
        }
      ],
      "name": "kycRequests",
      "outputs": [
        {
          "internalType": "uint256",
          "name": "requestId",
          "type": "uint256"
        },
        {
          "internalType": "address",
          "name": "applicant",
          "type": "address"
        },
        {
          "internalType": "string",
          "name": "fullName",
          "type": "string"
        },
        {
          "internalType": "string",
          "name": "nationalID",
          "type": "string"
        },
        {
          "internalType": "enum CBDC_KYC.KYCStatus",
          "name": "status",
          "type": "uint8"
        }
      ],
      "stateMutability": "view",
      "type": "function"
    },
    {
      "inputs": [],
      "name": "owner",
      "outputs": [
        {
          "internalType": "address",
          "name": "",
          "type": "address"
        }
      ],
      "stateMutability": "view",
      "type": "function"
    },
    {
      "inputs": [
        {
          "internalType": "uint256",
          "name": "_requestId",
          "type": "uint256"
        }
      ],
      "name": "rejectKYCRequest",
      "outputs": [],
      "stateMutability": "nonpayable",
      "type": "function"
    },
    {
      "inputs": [
        {
          "internalType": "string",
          "name": "_fullName",
          "type": "string"
        },
        {
          "internalType": "string",
          "name": "_nationalID",
          "type": "string"
        }
      ],
      "name": "submitKYCRequest",
      "outputs": [
        {
          "internalType": "uint256",
          "name": "",
          "type": "uint256"
        }
      ],
      "stateMutability": "nonpayable",
      "type": "function"
    },
    {
      "inputs": [],
      "name": "totalRequests",
      "outputs": [
        {
          "internalType": "uint256",
          "name": "",
          "type": "uint256"
        }
      ],
      "stateMutability": "view",
      "type": "function"
    }
  ],
  "bytecode": "0x608060405234801561001057600080fd5b50336000806101000a81548173ffffffffffffffffffffffffffffffffffffffff021916908373ffffffffffffffffffffffffffffffffffffffff1602179055506113a8806100606000396000f3fe608060405234801561001057600080fd5b506004361061007d5760003560e01c80638da5cb5b1161005b5780638da5cb5b1461010457806390ec8f7e14610122578063a89defd51461013e578063f8b2cb4f1461015a5761007d565b806306a01781146100825780632470cfe0146100b25780638aea61dc146100e6575b600080fd5b61009c60048036038101906100979190610a7e565b61018a565b6040516100a99190610b0f565b60405180910390f35b6100cc60048036038101906100c79190610b56565b610308565b6040516100dd959493929190610cba565b60405180910390f35b6100ee61047b565b6040516100fb9190610b0f565b60405180910390f35b61010c610481565b6040516101199190610d1b565b60405180910390f35b61013c60048036038101906101379190610b56565b6104a5565b005b61015860048036038101906101539190610b56565b6106b6565b005b610174600480360381019061016f9190610d62565b6108c7565b6040516101819190610b0f565b60405180910390f35b600080835111801561019d575060008251115b6101dc576040517f08c379a00000000000000000000000000000000000000000000000000000000081526004016101d390610e01565b60405180910390fd5b600260008154809291906101ef90610e50565b9190505550600060016000600254815260200190815260200160002090506002548160000181905550338160010160006101000a81548173ffffffffffffffffffffffffffffffffffffffff021916908373ffffffffffffffffffffffffffffffffffffffff1602179055508381600201908161026c91906110a4565b508281600301908161027e91906110a4565b5060018160040160006101000a81548160ff021916908360038111156102a7576102a6610c43565b5b02179055503373ffffffffffffffffffffffffffffffffffffffff167f0b57686a05f56f60add0061fc78d110071e3c1b86949e41f0b26f5d0a67cbfca6002546040516102f49190610b0f565b60405180910390a260025491505092915050565b60016020528060005260406000206000915090508060000154908060010160009054906101000a900473ffffffffffffffffffffffffffffffffffffffff169080600201805461035790610ec7565b80601f016020809104026020016040519081016040528092919081815260200182805461038390610ec7565b80156103d05780601f106103a5576101008083540402835291602001916103d0565b820191906000526020600020905b8154815290600101906020018083116103b357829003601f168201915b5050505050908060030180546103e590610ec7565b80601f016020809104026020016040519081016040528092919081815260200182805461041190610ec7565b801561045e5780601f106104335761010080835404028352916020019161045e565b820191906000526020600020905b81548152906001019060200180831161044157829003601f168201915b5050505050908060040160009054906101000a900460ff16905085565b60025481565b60008054906101000a900473ffffffffffffffffffffffffffffffffffffffff1681565b60008054906101000a900473ffffffffffffffffffffffffffffffffffffffff1673ffffffffffffffffffffffffffffffffffffffff163373ffffffffffffffffffffffffffffffffffffffff1614610533576040517f08c379a000000000000000000000000000000000000000000000000000000000815260040161052a906111e8565b60405180910390fd5b60008111801561054557506002548111155b610584576040517f08c379a000000000000000000000000000000000000000000000000000000000815260040161057b90611254565b60405180910390fd5b6000600160008381526020019081526020016000209050600160038111156105af576105ae610c43565b5b8160040160009054906101000a900460ff1660038111156105d3576105d2610c43565b5b14610613576040517f08c379a000000000000000000000000000000000000000000000000000000000815260040161060a906112c0565b60405180910390fd5b60028160040160006101000a81548160ff0219169083600381111561063b5761063a610c43565b5b02179055508060010160009054906101000a900473ffffffffffffffffffffffffffffffffffffffff1673ffffffffffffffffffffffffffffffffffffffff167f57202b88c66fe43f1efc2a4e62b3c0d7c8b5d1eb6c4887418d43ec9316cccd4a836040516106aa9190610b0f565b60405180910390a25050565b60008054906101000a900473ffffffffffffffffffffffffffffffffffffffff1673ffffffffffffffffffffffffffffffffffffffff163373ffffffffffffffffffffffffffffffffffffffff1614610744576040517f08c379a000000000000000000000000000000000000000000000000000000000815260040161073b906111e8565b60405180910390fd5b60008111801561075657506002548111155b610795576040517f08c379a000000000000000000000000000000000000000000000000000000000815260040161078c90611254565b60405180910390fd5b6000600160008381526020019081526020016000209050600160038111156107c0576107bf610c43565b5b8160040160009054906101000a900460ff1660038111156107e4576107e3610c43565b5b14610824576040517f08c379a000000000000000000000000000000000000000000000000000000000815260040161081b90611352565b60405180910390fd5b60038160040160006101000a81548160ff0219169083600381111561084c5761084b610c43565b5b02179055508060010160009054906101000a900473ffffffffffffffffffffffffffffffffffffffff1673ffffffffffffffffffffffffffffffffffffffff167f9d524bd04f9a33393607f0fdafe61e847a45696418cf82b47663f0e3027f4c8a836040516108bb9190610b0f565b60405180910390a25050565b6000808273ffffffffffffffffffffffffffffffffffffffff163190507f7c4b3ebe24b67f845d481885128ad41f55e5d927e00e2573453e1a8cf437b75c816040516109139190610b0f565b60405180910390a180915050919050565b6000604051905090565b600080fd5b600080fd5b600080fd5b600080fd5b6000601f19601f8301169050919050565b7f4e487b7100000000000000000000000000000000000000000000000000000000600052604160045260246000fd5b61098b82610942565b810181811067ffffffffffffffff821117156109aa576109a9610953565b5b80604052505050565b60006109bd610924565b90506109c98282610982565b919050565b600067ffffffffffffffff8211156109e9576109e8610953565b5b6109f282610942565b9050602081019050919050565b82818337600083830152505050565b6000610a21610a1c846109ce565b6109b3565b905082815260208101848484011115610a3d57610a3c61093d565b5b610a488482856109ff565b509392505050565b600082601f830112610a6557610a64610938565b5b8135610a75848260208601610a0e565b91505092915050565b60008060408385031215610a9557610a9461092e565b5b600083013567ffffffffffffffff811115610ab357610ab2610933565b5b610abf85828601610a50565b925050602083013567ffffffffffffffff811115610ae057610adf610933565b5b610aec85828601610a50565b9150509250929050565b6000819050919050565b610b0981610af6565b82525050565b6000602082019050610b246000830184610b00565b92915050565b610b3381610af6565b8114610b3e57600080fd5b50565b600081359050610b5081610b2a565b92915050565b600060208284031215610b6c57610b6b61092e565b5b6000610b7a84828501610b41565b91505092915050565b600073ffffffffffffffffffffffffffffffffffffffff82169050919050565b6000610bae82610b83565b9050919050565b610bbe81610ba3565b82525050565b600081519050919050565b600082825260208201905092915050565b60005b83811015610bfe578082015181840152602081019050610be3565b60008484015250505050565b6000610c1582610bc4565b610c1f8185610bcf565b9350610c2f818560208601610be0565b610c3881610942565b840191505092915050565b7f4e487b7100000000000000000000000000000000000000000000000000000000600052602160045260246000fd5b60048110610c8357610c82610c43565b5b50565b6000819050610c9482610c72565b919050565b6000610ca482610c86565b9050919050565b610cb481610c99565b82525050565b600060a082019050610ccf6000830188610b00565b610cdc6020830187610bb5565b8181036040830152610cee8186610c0a565b90508181036060830152610d028185610c0a565b9050610d116080830184610cab565b9695505050505050565b6000602082019050610d306000830184610bb5565b92915050565b610d3f81610ba3565b8114610d4a57600080fd5b50565b600081359050610d5c81610d36565b92915050565b600060208284031215610d7857610d7761092e565b5b6000610d8684828501610d4d565b91505092915050565b7f46756c6c206e616d6520616e64206e6174696f6e616c204944206d757374206260008201527f652070726f76696465642e000000000000000000000000000000000000000000602082015250565b6000610deb602b83610bcf565b9150610df682610d8f565b604082019050919050565b60006020820190508181036000830152610e1a81610dde565b9050919050565b7f4e487b7100000000000000000000000000000000000000000000000000000000600052601160045260246000fd5b6000610e5b82610af6565b91507fffffffffffffffffffffffffffffffffffffffffffffffffffffffffffffffff8203610e8d57610e8c610e21565b5b600182019050919050565b7f4e487b7100000000000000000000000000000000000000000000000000000000600052602260045260246000fd5b60006002820490506001821680610edf57607f821691505b602082108103610ef257610ef1610e98565b5b50919050565b60008190508160005260206000209050919050565b60006020601f8301049050919050565b600082821b905092915050565b600060088302610f5a7fffffffffffffffffffffffffffffffffffffffffffffffffffffffffffffffff82610f1d565b610f648683610f1d565b95508019841693508086168417925050509392505050565b6000819050919050565b6000610fa1610f9c610f9784610af6565b610f7c565b610af6565b9050919050565b6000819050919050565b610fbb83610f86565b610fcf610fc782610fa8565b848454610f2a565b825550505050565b600090565b610fe4610fd7565b610fef818484610fb2565b505050565b5b8181101561101357611008600082610fdc565b600181019050610ff5565b5050565b601f8211156110585761102981610ef8565b61103284610f0d565b81016020851015611041578190505b61105561104d85610f0d565b830182610ff4565b50505b505050565b600082821c905092915050565b600061107b6000198460080261105d565b1980831691505092915050565b6000611094838361106a565b9150826002028217905092915050565b6110ad82610bc4565b67ffffffffffffffff8111156110c6576110c5610953565b5b6110d08254610ec7565b6110db828285611017565b600060209050601f83116001811461110e57600084156110fc578287015190505b6111068582611088565b86555061116e565b601f19841661111c86610ef8565b60005b828110156111445784890151825560018201915060208501945060208101905061111f565b86831015611161578489015161115d601f89168261106a565b8355505b6001600288020188555050505b505050505050565b7f4f6e6c7920746865204342444320617574686f726974792063616e207065726660008201527f6f726d207468697320616374696f6e2e00000000000000000000000000000000602082015250565b60006111d2603083610bcf565b91506111dd82611176565b604082019050919050565b60006020820190508181036000830152611201816111c5565b9050919050565b7f496e76616c696420726571756573742049442e00000000000000000000000000600082015250565b600061123e601383610bcf565b915061124982611208565b602082019050919050565b6000602082019050818103600083015261126d81611231565b9050919050565b7f52657175657374206973206e6f742070656e64696e6720617070726f76616c2e600082015250565b60006112aa602083610bcf565b91506112b582611274565b602082019050919050565b600060208201905081810360008301526112d98161129d565b9050919050565b7f52657175657374206973206e6f742070656e64696e672072656a656374696f6e60008201527f2e00000000000000000000000000000000000000000000000000000000000000602082015250565b600061133c602183610bcf565b9150611347826112e0565b604082019050919050565b6000602082019050818103600083015261136b8161132f565b905091905056fea264697066735822122060eff005cb523430814283a823d903eafb884d0f6a227c758e05fc3f5de6d3af64736f6c63430008130033",
  "linkReferences": {},
  "deployedLinkReferences": {}
}